{
    "contractName": "SoulGuide",
    "abi": [
        {
            "inputs": [],
            "name": "WBTC",
            "outputs": [
                {
                    "internalType": "contract IERC20",
                    "name": "",
                    "type": "address"
                }
            ],
            "stateMutability": "view",
            "type": "function"
        },
        {
            "inputs": [],
            "name": "WETH",
            "outputs": [
                {
                    "internalType": "contract IERC20",
                    "name": "",
                    "type": "address"
                }
            ],
            "stateMutability": "view",
            "type": "function"
        },
        {
            "inputs": [],
            "name": "coffinBox",
            "outputs": [
                {
                    "internalType": "contract ICoffinBox",
                    "name": "",
                    "type": "address"
                }
            ],
            "stateMutability": "view",
            "type": "function"
        },
        {
            "inputs": [
                {
                    "internalType": "address",
                    "name": "who",
                    "type": "address"
                },
                {
                    "internalType": "address[]",
                    "name": "addresses",
                    "type": "address[]"
                }
            ],
            "name": "findBalances",
            "outputs": [
                {
                    "components": [
                        {
                            "internalType": "contract IERC20",
                            "name": "token",
                            "type": "address"
                        },
                        {
                            "internalType": "uint256",
                            "name": "balance",
                            "type": "uint256"
                        },
                        {
                            "internalType": "uint256",
                            "name": "coffinBalance",
                            "type": "uint256"
                        }
                    ],
                    "internalType": "struct SoulGuide.Balance[]",
                    "name": "",
                    "type": "tuple[]"
                }
            ],
            "stateMutability": "view",
            "type": "function"
        },
        {
            "inputs": [
                {
                    "internalType": "address",
                    "name": "who",
                    "type": "address"
                },
                {
                    "internalType": "uint256[]",
                    "name": "pids",
                    "type": "uint256[]"
                }
            ],
            "name": "findPools",
            "outputs": [
                {
                    "components": [
                        {
                            "internalType": "uint256",
                            "name": "pid",
                            "type": "uint256"
                        },
                        {
                            "internalType": "uint256",
                            "name": "balance",
                            "type": "uint256"
                        }
                    ],
                    "internalType": "struct SoulGuide.PoolFound[]",
                    "name": "",
                    "type": "tuple[]"
                }
            ],
            "stateMutability": "view",
            "type": "function"
        },
        {
            "inputs": [
                {
                    "internalType": "address",
                    "name": "who",
                    "type": "address"
                },
                {
                    "internalType": "contract IERC20[]",
                    "name": "addresses",
                    "type": "address[]"
                }
            ],
            "name": "getBalances",
            "outputs": [
                {
                    "components": [
                        {
                            "internalType": "contract IERC20",
                            "name": "token",
                            "type": "address"
                        },
                        {
                            "internalType": "uint256",
                            "name": "totalSupply",
                            "type": "uint256"
                        },
                        {
                            "internalType": "uint256",
                            "name": "balance",
                            "type": "uint256"
                        },
                        {
                            "internalType": "uint256",
                            "name": "coffinBalance",
                            "type": "uint256"
                        },
                        {
                            "internalType": "uint256",
                            "name": "coffinAllowance",
                            "type": "uint256"
                        },
                        {
                            "internalType": "uint256",
                            "name": "nonce",
                            "type": "uint256"
                        },
                        {
                            "internalType": "uint128",
                            "name": "coffinAmount",
                            "type": "uint128"
                        },
                        {
                            "internalType": "uint128",
                            "name": "coffinShare",
                            "type": "uint128"
                        },
                        {
                            "internalType": "uint256",
                            "name": "rate",
                            "type": "uint256"
                        }
                    ],
                    "internalType": "struct SoulGuide.BalanceFull[]",
                    "name": "",
                    "type": "tuple[]"
                }
            ],
            "stateMutability": "view",
            "type": "function"
        },
        {
            "inputs": [
                {
                    "internalType": "contract IERC20",
                    "name": "token",
                    "type": "address"
                }
            ],
            "name": "getETHRate",
            "outputs": [
                {
                    "internalType": "uint256",
                    "name": "",
                    "type": "uint256"
                }
            ],
            "stateMutability": "view",
            "type": "function"
        },
        {
            "inputs": [
                {
                    "internalType": "contract IFactory[]",
                    "name": "factoryAddresses",
                    "type": "address[]"
                }
            ],
            "name": "getPairHash",
            "outputs": [
                {
                    "internalType": "bytes32",
                    "name": "",
                    "type": "bytes32"
                }
            ],
            "stateMutability": "view",
            "type": "function"
        },
        {
            "inputs": [
                {
                    "internalType": "contract IFactory",
                    "name": "factory",
                    "type": "address"
                },
                {
                    "internalType": "uint256",
                    "name": "fromID",
                    "type": "uint256"
                },
                {
                    "internalType": "uint256",
                    "name": "toID",
                    "type": "uint256"
                }
            ],
            "name": "getPairs",
            "outputs": [
                {
                    "components": [
                        {
                            "internalType": "contract IPair",
                            "name": "token",
                            "type": "address"
                        },
                        {
                            "internalType": "contract IERC20",
                            "name": "token0",
                            "type": "address"
                        },
                        {
                            "internalType": "contract IERC20",
                            "name": "token1",
                            "type": "address"
                        },
                        {
                            "internalType": "uint256",
                            "name": "totalSupply",
                            "type": "uint256"
                        }
                    ],
                    "internalType": "struct SoulGuide.PairBase[]",
                    "name": "",
                    "type": "tuple[]"
                }
            ],
            "stateMutability": "view",
            "type": "function"
        },
        {
            "inputs": [
                {
                    "internalType": "uint256[]",
                    "name": "pids",
                    "type": "uint256[]"
                }
            ],
            "name": "getPools",
            "outputs": [
                {
                    "components": [
                        {
                            "internalType": "uint256",
                            "name": "totalAllocPoint",
                            "type": "uint256"
                        },
                        {
                            "internalType": "uint256",
                            "name": "poolLength",
                            "type": "uint256"
                        }
                    ],
                    "internalType": "struct SoulGuide.PoolsInfo",
                    "name": "",
                    "type": "tuple"
                },
                {
                    "components": [
                        {
                            "internalType": "uint256",
                            "name": "pid",
                            "type": "uint256"
                        },
                        {
                            "internalType": "contract IPair",
                            "name": "lpToken",
                            "type": "address"
                        },
                        {
                            "internalType": "uint256",
                            "name": "allocPoint",
                            "type": "uint256"
                        },
                        {
                            "internalType": "bool",
                            "name": "isPair",
                            "type": "bool"
                        },
                        {
                            "internalType": "contract IFactory",
                            "name": "factory",
                            "type": "address"
                        },
                        {
                            "internalType": "contract IERC20",
                            "name": "token0",
                            "type": "address"
                        },
                        {
                            "internalType": "contract IERC20",
                            "name": "token1",
                            "type": "address"
                        },
                        {
                            "internalType": "string",
                            "name": "name",
                            "type": "string"
                        },
                        {
                            "internalType": "string",
                            "name": "symbol",
                            "type": "string"
                        },
                        {
                            "internalType": "uint8",
                            "name": "decimals",
                            "type": "uint8"
                        }
                    ],
                    "internalType": "struct SoulGuide.PoolInfo[]",
                    "name": "",
                    "type": "tuple[]"
                }
            ],
            "stateMutability": "view",
            "type": "function"
        },
        {
            "inputs": [
                {
                    "internalType": "address[]",
                    "name": "addresses",
                    "type": "address[]"
                }
            ],
            "name": "getTokenInfo",
            "outputs": [
                {
                    "components": [
                        {
                            "internalType": "contract IERC20",
                            "name": "token",
                            "type": "address"
                        },
                        {
                            "internalType": "uint256",
                            "name": "decimals",
                            "type": "uint256"
                        },
                        {
                            "internalType": "string",
                            "name": "name",
                            "type": "string"
                        },
                        {
                            "internalType": "string",
                            "name": "symbol",
                            "type": "string"
                        },
                        {
                            "internalType": "bytes32",
                            "name": "DOMAIN_SEPARATOR",
                            "type": "bytes32"
                        }
                    ],
                    "internalType": "struct SoulGuide.TokenInfo[]",
                    "name": "",
                    "type": "tuple[]"
                }
            ],
            "stateMutability": "view",
            "type": "function"
        },
        {
            "inputs": [
                {
                    "internalType": "address",
                    "name": "who",
                    "type": "address"
                },
                {
                    "internalType": "contract IFactory[]",
                    "name": "factoryAddresses",
                    "type": "address[]"
                },
                {
                    "internalType": "contract IERC20",
                    "name": "currency",
                    "type": "address"
                },
                {
                    "internalType": "address[]",
                    "name": "masterContracts",
                    "type": "address[]"
                }
            ],
            "name": "getUIInfo",
            "outputs": [
                {
                    "components": [
                        {
                            "internalType": "uint256",
                            "name": "ethBalance",
                            "type": "uint256"
                        },
                        {
                            "internalType": "uint256",
                            "name": "soulBalance",
                            "type": "uint256"
                        },
                        {
                            "internalType": "uint256",
                            "name": "spellBoundBalance",
                            "type": "uint256"
                        },
                        {
                            "internalType": "uint256",
                            "name": "spellBalance",
                            "type": "uint256"
                        },
                        {
                            "internalType": "uint256",
                            "name": "spellSupply",
                            "type": "uint256"
                        },
                        {
                            "internalType": "uint256",
                            "name": "spellBoundAllowance",
                            "type": "uint256"
                        },
                        {
                            "components": [
                                {
                                    "internalType": "bytes32",
                                    "name": "INIT_CODE_PAIR_HASH",
                                    "type": "bytes32"
                                },
                                {
                                    "internalType": "contract IFactory",
                                    "name": "factory",
                                    "type": "address"
                                },
                                {
                                    "internalType": "uint256",
                                    "name": "totalPairs",
                                    "type": "uint256"
                                }
                            ],
                            "internalType": "struct SoulGuide.Factory[]",
                            "name": "factories",
                            "type": "tuple[]"
                        },
                        {
                            "internalType": "uint256",
                            "name": "ethRate",
                            "type": "uint256"
                        },
                        {
                            "internalType": "uint256",
                            "name": "soulRate",
                            "type": "uint256"
                        },
                        {
                            "internalType": "uint256",
                            "name": "btcRate",
                            "type": "uint256"
                        },
                        {
                            "internalType": "uint256",
                            "name": "pendingSoul",
                            "type": "uint256"
                        },
                        {
                            "internalType": "uint256",
                            "name": "blockTimeStamp",
                            "type": "uint256"
                        },
                        {
                            "internalType": "bool[]",
                            "name": "masterContractApproved",
                            "type": "bool[]"
                        }
                    ],
                    "internalType": "struct SoulGuide.UIInfo",
                    "name": "",
                    "type": "tuple"
                }
            ],
            "stateMutability": "view",
            "type": "function"
        },
        {
            "inputs": [
                {
                    "internalType": "contract ISoulSummoner",
                    "name": "summoner_",
                    "type": "address"
                },
                {
                    "internalType": "address",
                    "name": "maker_",
                    "type": "address"
                },
                {
                    "internalType": "contract IERC20",
                    "name": "soul_",
                    "type": "address"
                },
                {
                    "internalType": "contract IERC20",
                    "name": "WETH_",
                    "type": "address"
                },
                {
                    "internalType": "contract IERC20",
                    "name": "WBTC_",
                    "type": "address"
                },
                {
                    "internalType": "contract IFactory",
                    "name": "soulFactory_",
                    "type": "address"
                },
                {
                    "internalType": "contract IFactory",
                    "name": "uniV2Factory_",
                    "type": "address"
                },
                {
                    "internalType": "contract IERC20",
                    "name": "spell_",
                    "type": "address"
                },
                {
                    "internalType": "contract ICoffinBox",
                    "name": "coffinBox_",
                    "type": "address"
                }
            ],
            "name": "initialize",
            "outputs": [],
            "stateMutability": "nonpayable",
            "type": "function"
        },
        {
            "inputs": [],
            "name": "maker",
            "outputs": [
                {
                    "internalType": "address",
                    "name": "",
                    "type": "address"
                }
            ],
            "stateMutability": "view",
            "type": "function"
        },
        {
            "inputs": [],
            "name": "owner",
            "outputs": [
                {
                    "internalType": "address",
                    "name": "",
                    "type": "address"
                }
            ],
            "stateMutability": "view",
            "type": "function"
        },
        {
            "inputs": [
                {
                    "internalType": "address",
                    "name": "who",
                    "type": "address"
                },
                {
                    "internalType": "contract IPair[]",
                    "name": "addresses",
                    "type": "address[]"
                }
            ],
            "name": "pollPairs",
            "outputs": [
                {
                    "components": [
                        {
                            "internalType": "contract IPair",
                            "name": "token",
                            "type": "address"
                        },
                        {
                            "internalType": "uint256",
                            "name": "reserve0",
                            "type": "uint256"
                        },
                        {
                            "internalType": "uint256",
                            "name": "reserve1",
                            "type": "uint256"
                        },
                        {
                            "internalType": "uint256",
                            "name": "totalSupply",
                            "type": "uint256"
                        },
                        {
                            "internalType": "uint256",
                            "name": "balance",
                            "type": "uint256"
                        }
                    ],
                    "internalType": "struct SoulGuide.PairPoll[]",
                    "name": "",
                    "type": "tuple[]"
                }
            ],
            "stateMutability": "view",
            "type": "function"
        },
        {
            "inputs": [
                {
                    "internalType": "address",
                    "name": "who",
                    "type": "address"
                },
                {
                    "internalType": "uint256[]",
                    "name": "pids",
                    "type": "uint256[]"
                }
            ],
            "name": "pollPools",
            "outputs": [
                {
                    "components": [
                        {
                            "internalType": "uint256",
                            "name": "pid",
                            "type": "uint256"
                        },
                        {
                            "internalType": "uint256",
                            "name": "balance",
                            "type": "uint256"
                        },
                        {
                            "internalType": "uint256",
                            "name": "totalSupply",
                            "type": "uint256"
                        },
                        {
                            "internalType": "uint256",
                            "name": "lpBalance",
                            "type": "uint256"
                        },
                        {
                            "internalType": "uint256",
                            "name": "lpTotalSupply",
                            "type": "uint256"
                        },
                        {
                            "internalType": "uint256",
                            "name": "lpAllowance",
                            "type": "uint256"
                        },
                        {
                            "internalType": "uint256",
                            "name": "reserve0",
                            "type": "uint256"
                        },
                        {
                            "internalType": "uint256",
                            "name": "reserve1",
                            "type": "uint256"
                        },
                        {
                            "internalType": "uint256",
                            "name": "rewardDebt",
                            "type": "uint256"
                        },
                        {
                            "internalType": "uint256",
                            "name": "pending",
                            "type": "uint256"
                        }
                    ],
                    "internalType": "struct SoulGuide.UserPoolInfo[]",
                    "name": "",
                    "type": "tuple[]"
                }
            ],
            "stateMutability": "view",
            "type": "function"
        },
        {
            "inputs": [
                {
                    "internalType": "address",
                    "name": "who",
                    "type": "address"
                },
                {
                    "internalType": "contract IUnderworldPair[]",
                    "name": "pairsIn",
                    "type": "address[]"
                }
            ],
            "name": "pollUnderworldPairs",
            "outputs": [
                {
                    "components": [
                        {
                            "internalType": "contract IERC20",
                            "name": "collateral",
                            "type": "address"
                        },
                        {
                            "internalType": "contract IERC20",
                            "name": "asset",
                            "type": "address"
                        },
                        {
                            "internalType": "contract IOracle",
                            "name": "oracle",
                            "type": "address"
                        },
                        {
                            "internalType": "bytes",
                            "name": "oracleData",
                            "type": "bytes"
                        },
                        {
                            "internalType": "uint256",
                            "name": "totalCollateralShare",
                            "type": "uint256"
                        },
                        {
                            "internalType": "uint256",
                            "name": "userCollateralShare",
                            "type": "uint256"
                        },
                        {
                            "components": [
                                {
                                    "internalType": "uint128",
                                    "name": "elastic",
                                    "type": "uint128"
                                },
                                {
                                    "internalType": "uint128",
                                    "name": "base",
                                    "type": "uint128"
                                }
                            ],
                            "internalType": "struct Rebase",
                            "name": "totalAsset",
                            "type": "tuple"
                        },
                        {
                            "internalType": "uint256",
                            "name": "userAssetFraction",
                            "type": "uint256"
                        },
                        {
                            "components": [
                                {
                                    "internalType": "uint128",
                                    "name": "elastic",
                                    "type": "uint128"
                                },
                                {
                                    "internalType": "uint128",
                                    "name": "base",
                                    "type": "uint128"
                                }
                            ],
                            "internalType": "struct Rebase",
                            "name": "totalBorrow",
                            "type": "tuple"
                        },
                        {
                            "internalType": "uint256",
                            "name": "userBorrowPart",
                            "type": "uint256"
                        },
                        {
                            "internalType": "uint256",
                            "name": "currentExchangeRate",
                            "type": "uint256"
                        },
                        {
                            "internalType": "uint256",
                            "name": "spotExchangeRate",
                            "type": "uint256"
                        },
                        {
                            "internalType": "uint256",
                            "name": "oracleExchangeRate",
                            "type": "uint256"
                        },
                        {
                            "components": [
                                {
                                    "internalType": "uint64",
                                    "name": "interestPerSecond",
                                    "type": "uint64"
                                },
                                {
                                    "internalType": "uint64",
                                    "name": "lastAccrued",
                                    "type": "uint64"
                                },
                                {
                                    "internalType": "uint128",
                                    "name": "feesEarnedFraction",
                                    "type": "uint128"
                                }
                            ],
                            "internalType": "struct AccrueInfo",
                            "name": "accrueInfo",
                            "type": "tuple"
                        }
                    ],
                    "internalType": "struct SoulGuide.UnderworldPairPoll[]",
                    "name": "",
                    "type": "tuple[]"
                }
            ],
            "stateMutability": "view",
            "type": "function"
        },
        {
            "inputs": [
                {
                    "internalType": "contract ISoulSummoner",
                    "name": "summoner_",
                    "type": "address"
                },
                {
                    "internalType": "address",
                    "name": "maker_",
                    "type": "address"
                },
                {
                    "internalType": "contract IERC20",
                    "name": "soul_",
                    "type": "address"
                },
                {
                    "internalType": "contract IERC20",
                    "name": "WETH_",
                    "type": "address"
                },
                {
                    "internalType": "contract IERC20",
                    "name": "WBTC_",
                    "type": "address"
                },
                {
                    "internalType": "contract IFactory",
                    "name": "soulFactory_",
                    "type": "address"
                },
                {
                    "internalType": "contract IFactory",
                    "name": "uniV2Factory_",
                    "type": "address"
                },
                {
                    "internalType": "contract IERC20",
                    "name": "spell_",
                    "type": "address"
                },
                {
                    "internalType": "contract ICoffinBox",
                    "name": "coffinBox_",
                    "type": "address"
                }
            ],
            "name": "setContracts",
            "outputs": [],
            "stateMutability": "nonpayable",
            "type": "function"
        },
        {
            "inputs": [],
            "name": "soul",
            "outputs": [
                {
                    "internalType": "contract IERC20",
                    "name": "",
                    "type": "address"
                }
            ],
            "stateMutability": "view",
            "type": "function"
        },
        {
            "inputs": [],
            "name": "soulFactory",
            "outputs": [
                {
                    "internalType": "contract IFactory",
                    "name": "",
                    "type": "address"
                }
            ],
            "stateMutability": "view",
            "type": "function"
        },
        {
            "inputs": [],
            "name": "spell",
            "outputs": [
                {
                    "internalType": "contract IERC20",
                    "name": "",
                    "type": "address"
                }
            ],
            "stateMutability": "view",
            "type": "function"
        },
        {
            "inputs": [],
            "name": "summoner",
            "outputs": [
                {
                    "internalType": "contract ISoulSummoner",
                    "name": "",
                    "type": "address"
                }
            ],
            "stateMutability": "view",
            "type": "function"
        },
        {
            "inputs": [],
            "name": "uniV2Factory",
            "outputs": [
                {
                    "internalType": "contract IFactory",
                    "name": "",
                    "type": "address"
                }
            ],
            "stateMutability": "view",
            "type": "function"
        }
    ],
    "bytecode": "60a060405233606081901b60805261506761002960003980612249528061226d52506150676000f3fe608060405234801561001057600080fd5b50600436106101585760003560e01c8063a8883060116100c3578063dacaa9d11161007c578063dacaa9d114610301578063e035207714610309578063e3265c5914610329578063ea762b791461033c578063f0c9e70a14610344578063f5e95acb1461027c57610158565b8063a88830601461027c578063a959dd8014610291578063ac6091f8146102b1578063ad5c4648146102d1578063bd047408146102d9578063ca0f937c146102e157610158565b806350655d8c1161011557806350655d8c146102045780635ec546591461020c5780636a385ae91461022c5780637e3e25961461024c578063815b7a8c1461026c5780638da5cb5b1461027457610158565b8063152434751461015d5780632952dde8146101865780633009f414146101a75780633da04b87146101c75780634a69ac50146101dc5780634dede3de146101fc575b600080fd5b61017061016b36600461406c565b61034c565b60405161017d9190614e8c565b60405180910390f35b6101996101943660046143b0565b610a45565b60405161017d929190614d6a565b6101ba6101b5366004614292565b610f6a565b60405161017d9190614c83565b6101cf61156d565b60405161017d9190614866565b6101ef6101ea366004614313565b61157c565b60405161017d9190614aab565b6101cf6116df565b6101cf6116ee565b61021f61021a366004614484565b6116fd565b60405161017d9190614d19565b61023f61023a366004613fbc565b611b1d565b60405161017d9190614894565b61025f61025a3660046144bc565b611f3c565b60405161017d919061499c565b6101cf612238565b6101cf612247565b61028f61028a3660046144f0565b61226b565b005b6102a461029f366004614153565b612359565b60405161017d9190614a01565b6102c46102bf366004614292565b6125f9565b60405161017d9190614a6b565b6101cf612743565b6101cf612752565b6102f46102ef366004613f6f565b612761565b60405161017d9190614947565b6101cf612942565b61031c6103173660046141f2565b612951565b60405161017d9190614b57565b61021f610337366004614345565b6133cb565b6101cf61352e565b6101cf61353d565b610354613ac8565b61035c613ac8565b6001600160a01b03861631815284516001600160401b038111801561038057600080fd5b506040519080825280602002602001820160405280156103ba57816020015b6103a7613b30565b81526020019060019003908161039f5790505b5060c082015260005b85518110156104b25760008682815181106103da57fe5b60200260200101519050808360c0015183815181106103f557fe5b6020026020010151602001906001600160a01b031690816001600160a01b031681525050806001600160a01b0316635d8c32a96040518163ffffffff1660e01b815260040160206040518083038186803b15801561045257600080fd5b505afa158015610466573d6000803e3d6000fd5b505050506040513d601f19601f8201168201806040525081019061048a919061443a565b8360c00151838151811061049a57fe5b602090810291909101015160400152506001016103c3565b5082516001600160401b03811180156104ca57600080fd5b506040519080825280602002602001820160405280156104f4578160200160208202803683370190505b5061018082015260005b83518110156105c95760085484516001600160a01b03909116906391e0eab59086908490811061052a57fe5b6020026020010151896040518363ffffffff1660e01b815260040161055092919061487a565b60206040518083038186803b15801561056857600080fd5b505afa15801561057c573d6000803e3d6000fd5b505050506040513d601f19601f820116820180604052508101906105a091906143e2565b82610180015182815181106105b157fe5b911515602092830291909101909101526001016104fe565b506001600160a01b038416156105e8576105e2846116fd565b60e08201525b6004546001600160a01b0316156106155760045461060e906001600160a01b03166116fd565b6101208201525b6002546001600160a01b0316156107df5760025461063b906001600160a01b03166116fd565b6101008201526002546040516370a0823160e01b81526001600160a01b03909116906370a0823190610671908990600401614866565b60206040518083038186803b15801561068957600080fd5b505afa15801561069d573d6000803e3d6000fd5b505050506040513d601f19601f820116820180604052508101906106c1919061443a565b60208201526002546007546040516370a0823160e01b81526001600160a01b03928316926370a08231926106fa92911690600401614866565b60206040518083038186803b15801561071257600080fd5b505afa158015610726573d6000803e3d6000fd5b505050506040513d601f19601f8201168201806040525081019061074a919061443a565b6040808301919091526002546007549151636eb1769f60e11b81526001600160a01b039182169263dd62ed3e92610789928b929091169060040161487a565b60206040518083038186803b1580156107a157600080fd5b505afa1580156107b5573d6000803e3d6000fd5b505050506040513d601f19601f820116820180604052508101906107d9919061443a565b60a08201525b6007546001600160a01b0316156108f8576007546040516370a0823160e01b81526001600160a01b03909116906370a0823190610820908990600401614866565b60206040518083038186803b15801561083857600080fd5b505afa15801561084c573d6000803e3d6000fd5b505050506040513d601f19601f82011682018060405250810190610870919061443a565b6060820152600754604080516318160ddd60e01b815290516001600160a01b03909216916318160ddd91600480820192602092909190829003018186803b1580156108ba57600080fd5b505afa1580156108ce573d6000803e3d6000fd5b505050506040513d601f19601f820116820180604052508101906108f2919061443a565b60808201525b6000546001600160a01b031615610a355760008060009054906101000a90046001600160a01b03166001600160a01b031663081e3eda6040518163ffffffff1660e01b815260040160206040518083038186803b15801561095857600080fd5b505afa15801561096c573d6000803e3d6000fd5b505050506040513d601f19601f82011682018060405250810190610990919061443a565b90506000805b82811015610a2c5760005460405163bfafcad560e01b81526001600160a01b039091169063bfafcad5906109d09084908d90600401614f4e565b60206040518083038186803b1580156109e857600080fd5b505afa1580156109fc573d6000803e3d6000fd5b505050506040513d601f19601f82011682018060405250810190610a20919061443a565b90910190600101610996565b50610140830152505b4261016082015295945050505050565b610a4d613b50565b6060610a57613b50565b6000809054906101000a90046001600160a01b03166001600160a01b03166317caf6f16040518163ffffffff1660e01b815260040160206040518083038186803b158015610aa457600080fd5b505afa158015610ab8573d6000803e3d6000fd5b505050506040513d601f19601f82011682018060405250810190610adc919061443a565b8152600080546040805163040f1f6d60e11b815290516001600160a01b039092169163081e3eda91600480820192602092909190829003018186803b158015610b2457600080fd5b505afa158015610b38573d6000803e3d6000fd5b505050506040513d601f19601f82011682018060405250810190610b5c919061443a565b6020830181905285519091506060906001600160401b0381118015610b8057600080fd5b50604051908082528060200260200182016040528015610bba57816020015b610ba7613b6a565b815260200190600190039081610b9f5790505b50905060005b8651811015610f5d57868181518110610bd557fe5b6020026020010151828281518110610be957fe5b60209081029190910101515260008054885182916001600160a01b031690631526fe27908b9086908110610c1957fe5b60200260200101516040518263ffffffff1660e01b8152600401610c3d9190614d19565b60806040518083038186803b158015610c5557600080fd5b505afa158015610c69573d6000803e3d6000fd5b505050506040513d601f19601f82011682018060405250810190610c8d91906142d5565b505091509150600082905080858581518110610ca557fe5b6020026020010151602001906001600160a01b031690816001600160a01b03168152505081858581518110610cd657fe5b60200260200101516040018181525050610cf8816001600160a01b031661354c565b858581518110610d0457fe5b602002602001015160e00181905250610d25816001600160a01b031661360f565b858581518110610d3157fe5b60200260200101516101000181905250610d53816001600160a01b0316613656565b858581518110610d5f57fe5b6020026020010151610120019060ff16908160ff1681525050610d8a816001600160a01b031661370f565b858581518110610d9657fe5b6020026020010151608001906001600160a01b031690816001600160a01b03168152505060006001600160a01b0316858581518110610dd157fe5b6020026020010151608001516001600160a01b031614610f52576001858581518110610df957fe5b60200260200101516060019015159081151581525050806001600160a01b0316630dfe16816040518163ffffffff1660e01b815260040160206040518083038186803b158015610e4857600080fd5b505afa158015610e5c573d6000803e3d6000fd5b505050506040513d601f19601f82011682018060405250810190610e8091906144a0565b858581518110610e8c57fe5b602002602001015160a001906001600160a01b031690816001600160a01b031681525050806001600160a01b031663d21220a76040518163ffffffff1660e01b815260040160206040518083038186803b158015610ee957600080fd5b505afa158015610efd573d6000803e3d6000fd5b505050506040513d601f19601f82011682018060405250810190610f2191906144a0565b858581518110610f2d57fe5b602002602001015160c001906001600160a01b031690816001600160a01b0316815250505b505050600101610bc0565b5091935090915050915091565b60608082516001600160401b0381118015610f8457600080fd5b50604051908082528060200260200182016040528015610fbe57816020015b610fab613bbd565b815260200190600190039081610fa35790505b50905060005b8351811015611563576000805485516001600160a01b03909116906393f1a40b90879085908110610ff157fe5b6020026020010151886040518363ffffffff1660e01b8152600401611017929190614f4e565b604080518083038186803b15801561102e57600080fd5b505afa158015611042573d6000803e3d6000fd5b505050506040513d601f19601f8201168201806040525081019061106691906146cd565b5090508083838151811061107657fe5b602090810291909101810151015260005485516001600160a01b039091169063bfafcad5908790859081106110a757fe5b6020026020010151886040518363ffffffff1660e01b81526004016110cd929190614f4e565b60206040518083038186803b1580156110e557600080fd5b505afa1580156110f9573d6000803e3d6000fd5b505050506040513d601f19601f8201168201806040525081019061111d919061443a565b83838151811061112957fe5b602090810291909101015161012001526000805486516001600160a01b0390911690631526fe279088908690811061115d57fe5b60200260200101516040518263ffffffff1660e01b81526004016111819190614d19565b60806040518083038186803b15801561119957600080fd5b505afa1580156111ad573d6000803e3d6000fd5b505050506040513d601f19601f820116820180604052508101906111d191906142d5565b50505090508583815181106111e257fe5b60200260200101518484815181106111f657fe5b6020908102919091010151528060006112176001600160a01b03831661370f565b90506001600160a01b03811615611553576000546040516370a0823160e01b81526001600160a01b03848116926370a082319261125a9290911690600401614866565b60206040518083038186803b15801561127257600080fd5b505afa158015611286573d6000803e3d6000fd5b505050506040513d601f19601f820116820180604052508101906112aa919061443a565b8686815181106112b657fe5b60209081029190910101516040908101919091526000549051636eb1769f60e11b81526001600160a01b038085169263dd62ed3e926112fb928e92169060040161487a565b60206040518083038186803b15801561131357600080fd5b505afa158015611327573d6000803e3d6000fd5b505050506040513d601f19601f8201168201806040525081019061134b919061443a565b86868151811061135757fe5b602090810291909101015160a001526040516370a0823160e01b81526001600160a01b038316906370a0823190611392908c90600401614866565b60206040518083038186803b1580156113aa57600080fd5b505afa1580156113be573d6000803e3d6000fd5b505050506040513d601f19601f820116820180604052508101906113e2919061443a565b8686815181106113ee57fe5b60200260200101516060018181525050816001600160a01b03166318160ddd6040518163ffffffff1660e01b815260040160206040518083038186803b15801561143757600080fd5b505afa15801561144b573d6000803e3d6000fd5b505050506040513d601f19601f8201168201806040525081019061146f919061443a565b86868151811061147b57fe5b60200260200101516080018181525050600080836001600160a01b0316630902f1ac6040518163ffffffff1660e01b815260040160606040518083038186803b1580156114c757600080fd5b505afa1580156114db573d6000803e3d6000fd5b505050506040513d601f19601f820116820180604052508101906114ff9190614640565b5091509150816001600160701b031688888151811061151a57fe5b602002602001015160c0018181525050806001600160701b031688888151811061154057fe5b602002602001015160e001818152505050505b505060019092019150610fc49050565b5090505b92915050565b6006546001600160a01b031681565b60608082516001600160401b038111801561159657600080fd5b506040519080825280602002602001820160405280156115d057816020015b6115bd613c10565b8152602001906001900390816115b55790505b50905060005b83518110156116d65760008482815181106115ed57fe5b602002602001015190508083838151811061160457fe5b60209081029190910101516001600160a01b03918216905261162790821661354c565b83838151811061163357fe5b602002602001015160400181905250611654816001600160a01b031661360f565b83838151811061166057fe5b602002602001015160600181905250611681816001600160a01b0316613656565b60ff1683838151811061169057fe5b602002602001015160200181815250506116b2816001600160a01b03166137c8565b8383815181106116be57fe5b602090810291909101015160800152506001016115d6565b5090505b919050565b6004546001600160a01b031681565b6001546001600160a01b031681565b6003546000906001600160a01b03838116911614156117255750670de0b6b3a76400006116da565b60065460009081906001600160a01b0316156117c55760065460035460405163e6a4390560e01b81526001600160a01b039283169263e6a43905926117729289929091169060040161487a565b60206040518083038186803b15801561178a57600080fd5b505afa15801561179e573d6000803e3d6000fd5b505050506040513d601f19601f820116820180604052508101906117c291906144a0565b91505b6005546001600160a01b0316156118605760055460035460405163e6a4390560e01b81526001600160a01b039283169263e6a439059261180d9289929091169060040161487a565b60206040518083038186803b15801561182557600080fd5b505afa158015611839573d6000803e3d6000fd5b505050506040513d601f19601f8201168201806040525081019061185d91906144a0565b90505b6001600160a01b03821615801561187e57506001600160a01b038116155b1561188e576000925050506116da565b600080806001600160a01b0385161561199a57600080866001600160a01b0316630902f1ac6040518163ffffffff1660e01b815260040160606040518083038186803b1580156118dd57600080fd5b505afa1580156118f1573d6000803e3d6000fd5b505050506040513d601f19601f820116820180604052508101906119159190614640565b509150915081850194508084019350866001600160a01b0316630dfe16816040518163ffffffff1660e01b815260040160206040518083038186803b15801561195d57600080fd5b505afa158015611971573d6000803e3d6000fd5b505050506040513d601f19601f8201168201806040525081019061199591906144a0565b925050505b6001600160a01b03841615611ab057600080856001600160a01b0316630902f1ac6040518163ffffffff1660e01b815260040160606040518083038186803b1580156119e557600080fd5b505afa1580156119f9573d6000803e3d6000fd5b505050506040513d601f19601f82011682018060405250810190611a1d9190614640565b50958101959485019490925090506001600160a01b038316611aad57856001600160a01b0316630dfe16816040518163ffffffff1660e01b815260040160206040518083038186803b158015611a7257600080fd5b505afa158015611a86573d6000803e3d6000fd5b505050506040513d601f19601f82011682018060405250810190611aaa91906144a0565b92505b50505b6003546001600160a01b0382811691161415611af857826001600160701b0316826001600160701b0316670de0b6b3a76400000281611aeb57fe5b04955050505050506116da565b816001600160701b0316836001600160701b0316670de0b6b3a76400000281611aeb57fe5b60608082516001600160401b0381118015611b3757600080fd5b50604051908082528060200260200182016040528015611b7157816020015b611b5e613c4b565b815260200190600190039081611b565790505b50905060005b8351811015611563576000848281518110611b8e57fe5b60200260200101519050806001600160a01b03166318160ddd6040518163ffffffff1660e01b815260040160206040518083038186803b158015611bd157600080fd5b505afa158015611be5573d6000803e3d6000fd5b505050506040513d601f19601f82011682018060405250810190611c09919061443a565b838381518110611c1557fe5b6020026020010151602001818152505080838381518110611c3257fe5b60209081029190910101516001600160a01b0391821690526040516370a0823160e01b8152908216906370a0823190611c6f908990600401614866565b60206040518083038186803b158015611c8757600080fd5b505afa158015611c9b573d6000803e3d6000fd5b505050506040513d601f19601f82011682018060405250810190611cbf919061443a565b838381518110611ccb57fe5b60209081029190910101516040908101919091526008549051636eb1769f60e11b81526001600160a01b038084169263dd62ed3e92611d10928b92169060040161487a565b60206040518083038186803b158015611d2857600080fd5b505afa158015611d3c573d6000803e3d6000fd5b505050506040513d601f19601f82011682018060405250810190611d60919061443a565b838381518110611d6c57fe5b602090810291909101015160800152611d946001600160a01b0382168763ffffffff61388516565b838381518110611da057fe5b602090810291909101015160a00152600854604051633de222bb60e21b81526001600160a01b039091169063f7888aec90611de19084908a9060040161487a565b60206040518083038186803b158015611df957600080fd5b505afa158015611e0d573d6000803e3d6000fd5b505050506040513d601f19601f82011682018060405250810190611e31919061443a565b838381518110611e3d57fe5b602090810291909101015160600152600854604051634ffe34db60e01b81526001600160a01b0390911690634ffe34db90611e7c908490600401614866565b604080518083038186803b158015611e9357600080fd5b505afa158015611ea7573d6000803e3d6000fd5b505050506040513d601f19601f82011682018060405250810190611ecb9190614694565b848481518110611ed757fe5b602002602001015160c001858581518110611eee57fe5b60209081029190910101516001600160801b0392831660e09091015291169052611f17816116fd565b838381518110611f2357fe5b6020908102919091010151610100015250600101611b77565b6060808383036001600160401b0381118015611f5757600080fd5b50604051908082528060200260200182016040528015611f9157816020015b611f7e613cb2565b815260200190600190039081611f765790505b509050835b8381101561222f57604051631e3dd18b60e01b81526000906001600160a01b03881690631e3dd18b90611fcd908590600401614d19565b60206040518083038186803b158015611fe557600080fd5b505afa158015611ff9573d6000803e3d6000fd5b505050506040513d601f19601f8201168201806040525081019061201d91906144a0565b9050600086830390508184828151811061203357fe5b6020026020010151600001906001600160a01b031690816001600160a01b031681525050816001600160a01b0316630dfe16816040518163ffffffff1660e01b815260040160206040518083038186803b15801561209057600080fd5b505afa1580156120a4573d6000803e3d6000fd5b505050506040513d601f19601f820116820180604052508101906120c891906144a0565b8482815181106120d457fe5b6020026020010151602001906001600160a01b031690816001600160a01b031681525050816001600160a01b031663d21220a76040518163ffffffff1660e01b815260040160206040518083038186803b15801561213157600080fd5b505afa158015612145573d6000803e3d6000fd5b505050506040513d601f19601f8201168201806040525081019061216991906144a0565b84828151811061217557fe5b6020026020010151604001906001600160a01b031690816001600160a01b031681525050816001600160a01b03166318160ddd6040518163ffffffff1660e01b815260040160206040518083038186803b1580156121d257600080fd5b505afa1580156121e6573d6000803e3d6000fd5b505050506040513d601f19601f8201168201806040525081019061220a919061443a565b84828151811061221657fe5b6020908102919091010151606001525050600101611f96565b50949350505050565b6002546001600160a01b031681565b7f000000000000000000000000000000000000000000000000000000000000000081565b7f00000000000000000000000000000000000000000000000000000000000000006001600160a01b031633146122bc5760405162461bcd60e51b81526004016122b390614d35565b60405180910390fd5b600080546001600160a01b03199081166001600160a01b039b8c1617909155600180548216998b1699909917909855600280548916978a16979097179096556003805488169589169590951790945560048054871693881693909317909255600580548616918716919091179055600680548516918616919091179055600780548416918516919091179055600880549092169216919091179055565b60608082516001600160401b038111801561237357600080fd5b506040519080825280602002602001820160405280156123ad57816020015b61239a613cd9565b8152602001906001900390816123925790505b50905060005b83518110156115635760008482815181106123ca57fe5b60200260200101519050808383815181106123e157fe5b6020026020010151600001906001600160a01b031690816001600160a01b031681525050600080826001600160a01b0316630902f1ac6040518163ffffffff1660e01b815260040160606040518083038186803b15801561244157600080fd5b505afa158015612455573d6000803e3d6000fd5b505050506040513d601f19601f820116820180604052508101906124799190614640565b506001600160701b031691506001600160701b031691508185858151811061249d57fe5b60200260200101516020018181525050808585815181106124ba57fe5b60200260200101516040018181525050826001600160a01b03166370a08231896040518263ffffffff1660e01b81526004016124f69190614866565b60206040518083038186803b15801561250e57600080fd5b505afa158015612522573d6000803e3d6000fd5b505050506040513d601f19601f82011682018060405250810190612546919061443a565b85858151811061255257fe5b60200260200101516080018181525050826001600160a01b03166318160ddd6040518163ffffffff1660e01b815260040160206040518083038186803b15801561259b57600080fd5b505afa1580156125af573d6000803e3d6000fd5b505050506040513d601f19601f820116820180604052508101906125d3919061443a565b8585815181106125df57fe5b6020908102919091010151606001525050506001016123b3565b60608082516001600160401b038111801561261357600080fd5b5060405190808252806020026020018201604052801561264d57816020015b61263a613b50565b8152602001906001900390816126325790505b50905060005b83518110156115635783818151811061266857fe5b602002602001015182828151811061267c57fe5b60209081029190910101515260005484516001600160a01b03909116906393f1a40b908690849081106126ab57fe5b6020026020010151876040518363ffffffff1660e01b81526004016126d1929190614f4e565b604080518083038186803b1580156126e857600080fd5b505afa1580156126fc573d6000803e3d6000fd5b505050506040513d601f19601f8201168201806040525081019061272091906146cd565b5082828151811061272d57fe5b6020908102919091018101510152600101612653565b6003546001600160a01b031681565b6008546001600160a01b031681565b60608082516001600160401b038111801561277b57600080fd5b506040519080825280602002602001820160405280156127b557816020015b6127a2613d11565b81526020019060019003908161279a5790505b50835190915060005b818110156129385760008582815181106127d457fe5b60200260200101519050808483815181106127eb57fe5b60209081029190910101516001600160a01b0391821690526040516370a0823160e01b8152908216906370a0823190612828908a90600401614866565b60206040518083038186803b15801561284057600080fd5b505afa158015612854573d6000803e3d6000fd5b505050506040513d601f19601f82011682018060405250810190612878919061443a565b84838151811061288457fe5b6020908102919091018101510152600854604051633de222bb60e21b81526001600160a01b039091169063f7888aec906128c49084908b9060040161487a565b60206040518083038186803b1580156128dc57600080fd5b505afa1580156128f0573d6000803e3d6000fd5b505050506040513d601f19601f82011682018060405250810190612914919061443a565b84838151811061292057fe5b602090810291909101015160400152506001016127be565b5090949350505050565b6000546001600160a01b031681565b805160609081816001600160401b038111801561296d57600080fd5b506040519080825280602002602001820160405280156129a757816020015b612994613d3b565b81526020019060019003908161298c5790505b50905060005b8281101561222f5760008582815181106129c357fe5b60200260200101519050806001600160a01b031663d8dfeb456040518163ffffffff1660e01b815260040160206040518083038186803b158015612a0657600080fd5b505afa158015612a1a573d6000803e3d6000fd5b505050506040513d601f19601f82011682018060405250810190612a3e91906144a0565b838381518110612a4a57fe5b6020026020010151600001906001600160a01b031690816001600160a01b031681525050806001600160a01b03166338d52e0f6040518163ffffffff1660e01b815260040160206040518083038186803b158015612aa757600080fd5b505afa158015612abb573d6000803e3d6000fd5b505050506040513d601f19601f82011682018060405250810190612adf91906144a0565b838381518110612aeb57fe5b6020026020010151602001906001600160a01b031690816001600160a01b031681525050806001600160a01b0316637dc0d1d06040518163ffffffff1660e01b815260040160206040518083038186803b158015612b4857600080fd5b505afa158015612b5c573d6000803e3d6000fd5b505050506040513d601f19601f82011682018060405250810190612b8091906144a0565b838381518110612b8c57fe5b6020026020010151604001906001600160a01b031690816001600160a01b031681525050806001600160a01b03166374645ff36040518163ffffffff1660e01b815260040160006040518083038186803b158015612be957600080fd5b505afa158015612bfd573d6000803e3d6000fd5b505050506040513d6000823e601f3d908101601f19168201604052612c259190810190614452565b838381518110612c3157fe5b602002602001015160600181905250806001600160a01b031663473e3ce76040518163ffffffff1660e01b815260040160206040518083038186803b158015612c7957600080fd5b505afa158015612c8d573d6000803e3d6000fd5b505050506040513d601f19601f82011682018060405250810190612cb1919061443a565b838381518110612cbd57fe5b602090810291909101015160800152604051631c9e379b60e01b81526001600160a01b03821690631c9e379b90612cf8908a90600401614866565b60206040518083038186803b158015612d1057600080fd5b505afa158015612d24573d6000803e3d6000fd5b505050506040513d601f19601f82011682018060405250810190612d48919061443a565b838381518110612d5457fe5b602002602001015160a0018181525050806001600160a01b031663f9557ccb6040518163ffffffff1660e01b8152600401604080518083038186803b158015612d9c57600080fd5b505afa158015612db0573d6000803e3d6000fd5b505050506040513d601f19601f82011682018060405250810190612dd49190614600565b838381518110612de057fe5b602090810291909101015160c001526040516370a0823160e01b81526001600160a01b038216906370a0823190612e1b908a90600401614866565b60206040518083038186803b158015612e3357600080fd5b505afa158015612e47573d6000803e3d6000fd5b505050506040513d601f19601f82011682018060405250810190612e6b919061443a565b838381518110612e7757fe5b602002602001015160e0018181525050806001600160a01b0316638285ef406040518163ffffffff1660e01b8152600401604080518083038186803b158015612ebf57600080fd5b505afa158015612ed3573d6000803e3d6000fd5b505050506040513d601f19601f82011682018060405250810190612ef79190614600565b838381518110612f0357fe5b602090810291909101015161010001526040516324720b1f60e11b81526001600160a01b038216906348e4163e90612f3f908a90600401614866565b60206040518083038186803b158015612f5757600080fd5b505afa158015612f6b573d6000803e3d6000fd5b505050506040513d601f19601f82011682018060405250810190612f8f919061443a565b838381518110612f9b57fe5b6020026020010151610120018181525050806001600160a01b0316633ba0b9a96040518163ffffffff1660e01b815260040160206040518083038186803b158015612fe557600080fd5b505afa158015612ff9573d6000803e3d6000fd5b505050506040513d601f19601f8201168201806040525081019061301d919061443a565b83838151811061302957fe5b6020026020010151610140018181525050806001600160a01b0316637dc0d1d06040518163ffffffff1660e01b815260040160206040518083038186803b15801561307357600080fd5b505afa158015613087573d6000803e3d6000fd5b505050506040513d601f19601f820116820180604052508101906130ab91906144a0565b6001600160a01b031663eeb8a8d3826001600160a01b03166374645ff36040518163ffffffff1660e01b815260040160006040518083038186803b1580156130f257600080fd5b505afa158015613106573d6000803e3d6000fd5b505050506040513d6000823e601f3d908101601f1916820160405261312e9190810190614452565b6040518263ffffffff1660e01b815260040161314a9190614d22565b604080518083038186803b15801561316157600080fd5b505afa158015613175573d6000803e3d6000fd5b505050506040513d601f19601f820116820180604052508101906131999190614409565b90508383815181106131a757fe5b6020026020010151610180018181525050806001600160a01b0316637dc0d1d06040518163ffffffff1660e01b815260040160206040518083038186803b1580156131f157600080fd5b505afa158015613205573d6000803e3d6000fd5b505050506040513d601f19601f8201168201806040525081019061322991906144a0565b6001600160a01b031663d39bbef0826001600160a01b03166374645ff36040518163ffffffff1660e01b815260040160006040518083038186803b15801561327057600080fd5b505afa158015613284573d6000803e3d6000fd5b505050506040513d6000823e601f3d908101601f191682016040526132ac9190810190614452565b6040518263ffffffff1660e01b81526004016132c89190614d22565b60206040518083038186803b1580156132e057600080fd5b505afa1580156132f4573d6000803e3d6000fd5b505050506040513d601f19601f82011682018060405250810190613318919061443a565b83838151811061332457fe5b6020026020010151610160018181525050806001600160a01b031663b27c0e746040518163ffffffff1660e01b815260040160606040518083038186803b15801561336e57600080fd5b505afa158015613382573d6000803e3d6000fd5b505050506040513d601f19601f820116820180604052508101906133a691906145ab565b8383815181106133b257fe5b60209081029190910101516101a00152506001016129ad565b60006133d5613dd6565b826001600160401b03811180156133eb57600080fd5b5060405190808252806020026020018201604052801561342557816020015b613412613b30565b81526020019060019003908161340a5790505b50602082015260005b8381101561352657600085858381811061344457fe5b90506020020160208101906134599190614484565b9050808360200151838151811061346c57fe5b6020026020010151602001906001600160a01b031690816001600160a01b031681525050806001600160a01b0316635855a25a6040518163ffffffff1660e01b815260040160206040518083038186803b1580156134c957600080fd5b505afa1580156134dd573d6000803e3d6000fd5b505050506040513d601f19601f82011682018060405250810190613501919061443a565b8360200151838151811061351157fe5b6020908102919091010151525060010161342e565b505092915050565b6007546001600160a01b031681565b6005546001600160a01b031681565b60408051600481526024810182526020810180516001600160e01b03166306fdde0360e01b179052905160609160009183916001600160a01b03861691613593919061484a565b600060405180830381855afa9150503d80600081146135ce576040519150601f19603f3d011682016040523d82523d6000602084013e6135d3565b606091505b5091509150816135fe57604051806040016040528060038152602001623f3f3f60e81b815250613607565b61360781613963565b949350505050565b60408051600481526024810182526020810180516001600160e01b03166395d89b4160e01b179052905160609160009183916001600160a01b03861691613593919061484a565b60408051600481526024810182526020810180516001600160e01b031663313ce56760e01b179052905160009182916060916001600160a01b0386169161369d919061484a565b600060405180830381855afa9150503d80600081146136d8576040519150601f19603f3d011682016040523d82523d6000602084013e6136dd565b606091505b50915091508180156136f0575080516020145b6136fb576012613607565b8080602001905181019061360791906146f0565b60408051600481526024810182526020810180516001600160e01b031663c45a015560e01b179052905160009182916060916001600160a01b03861691613756919061484a565b600060405180830381855afa9150503d8060008114613791576040519150601f19603f3d011682016040523d82523d6000602084013e613796565b606091505b50915091508180156137a9575080516020145b6137b4576000613607565b8080602001905181019061360791906144a0565b60408051600481526024810182526020810180516001600160e01b0316633644e51560e01b179052905160009182916060916001600160a01b03861691612710916138129161484a565b6000604051808303818686fa925050503d806000811461384e576040519150601f19603f3d011682016040523d82523d6000602084013e613853565b606091505b5091509150818015613866575080516020145b613871576000613607565b80806020019051810190613607919061443a565b6000806060846001600160a01b0316611388637ecebe00866040516024016138ad9190614866565b6040516020818303038152906040529060e01b6020820180516001600160e01b0383818316178352505050506040516138e6919061484a565b6000604051808303818686fa925050503d8060008114613922576040519150601f19603f3d011682016040523d82523d6000602084013e613927565b606091505b509150915081801561393a575080516020145b6139465760001961395a565b8080602001905181019061395a919061443a565b95945050505050565b6060604082511061398957818060200190518101906139829190614452565b90506116da565b815160201415613aa85760005b60208160ff161080156139c55750828160ff16815181106139b357fe5b01602001516001600160f81b03191615155b156139d257600101613996565b60608160ff166001600160401b03811180156139ed57600080fd5b506040519080825280601f01601f191660200182016040528015613a18576020820181803683370190505b509050600091505b60208260ff16108015613a4f5750838260ff1681518110613a3d57fe5b01602001516001600160f81b03191615155b15613a9f57838260ff1681518110613a6357fe5b602001015160f81c60f81b818360ff1681518110613a7d57fe5b60200101906001600160f81b031916908160001a905350600190910190613a20565b91506116da9050565b506040805180820190915260038152623f3f3f60e81b60208201526116da565b604051806101a00160405280600081526020016000815260200160008152602001600081526020016000815260200160008152602001606081526020016000815260200160008152602001600081526020016000815260200160008152602001606081525090565b604080516060810182526000808252602082018190529181019190915290565b604051806040016040528060008152602001600081525090565b604080516101408101825260008082526020820181905291810182905260608082018390526080820183905260a0820183905260c0820183905260e0820181905261010082015261012081019190915290565b604051806101400160405280600081526020016000815260200160008152602001600081526020016000815260200160008152602001600081526020016000815260200160008152602001600081525090565b6040518060a0016040528060006001600160a01b03168152602001600081526020016060815260200160608152602001600080191681525090565b60405180610120016040528060006001600160a01b03168152602001600081526020016000815260200160008152602001600081526020016000815260200160006001600160801b0316815260200160006001600160801b03168152602001600081525090565b60408051608081018252600080825260208201819052918101829052606081019190915290565b6040518060a0016040528060006001600160a01b03168152602001600081526020016000815260200160008152602001600081525090565b604051806060016040528060006001600160a01b0316815260200160008152602001600081525090565b604051806101c0016040528060006001600160a01b0316815260200160006001600160a01b0316815260200160006001600160a01b03168152602001606081526020016000815260200160008152602001613d94613dfa565b815260200160008152602001613da8613dfa565b815260200160008152602001600081526020016000815260200160008152602001613dd1613b30565b905290565b60405180606001604052806000801916815260200160608152602001600081525090565b604080518082019091526000808252602082015290565b600082601f830112613e21578081fd5b8135613e34613e2f82614f8b565b614f65565b818152915060208083019084810181840286018201871015613e5557600080fd5b60005b84811015613e7d578135613e6b81614fda565b84529282019290820190600101613e58565b505050505092915050565b600082601f830112613e98578081fd5b8135613ea6613e2f82614f8b565b818152915060208083019084810181840286018201871015613ec757600080fd5b60005b84811015613e7d57813584529282019290820190600101613eca565b600082601f830112613ef6578081fd5b81516001600160401b03811115613f0b578182fd5b613f1e601f8201601f1916602001614f65565b9150808252836020828501011115613f3557600080fd5b613f46816020840160208601614faa565b5092915050565b803561156781614fda565b80516001600160801b038116811461156757600080fd5b60008060408385031215613f81578182fd5b8235613f8c81614fda565b915060208301356001600160401b03811115613fa6578182fd5b613fb285828601613e11565b9150509250929050565b60008060408385031215613fce578182fd5b8235613fd981614fda565b91506020838101356001600160401b03811115613ff4578283fd5b80850186601f820112614005578384fd5b80359150614015613e2f83614f8b565b82815283810190828501858502840186018a1015614031578687fd5b8693505b8484101561405c57803561404881614fda565b835260019390930192918501918501614035565b5080955050505050509250929050565b60008060008060808587031215614081578182fd5b843561408c81614fda565b93506020858101356001600160401b03808211156140a8578485fd5b81880189601f8201126140b9578586fd5b803592506140c9613e2f84614f8b565b83815284810190828601868602840187018d10156140e5578889fd5b8893505b858410156141105780356140fc81614fda565b8352600193909301929186019186016140e9565b508098505050506141248960408a01613f4d565b94506060880135925080831115614139578384fd5b505061414787828801613e11565b91505092959194509250565b60008060408385031215614165578182fd5b823561417081614fda565b91506020838101356001600160401b0381111561418b578283fd5b80850186601f82011261419c578384fd5b803591506141ac613e2f83614f8b565b82815283810190828501858502840186018a10156141c8578687fd5b8693505b8484101561405c576141de8a82613f4d565b8352600193909301929185019185016141cc565b60008060408385031215614204578182fd5b823561420f81614fda565b91506020838101356001600160401b0381111561422a578283fd5b80850186601f82011261423b578384fd5b8035915061424b613e2f83614f8b565b82815283810190828501858502840186018a1015614267578687fd5b8693505b8484101561405c57803561427e81614fda565b83526001939093019291850191850161426b565b600080604083850312156142a4578182fd5b82356142af81614fda565b915060208301356001600160401b038111156142c9578182fd5b613fb285828601613e88565b600080600080608085870312156142ea578182fd5b84516142f581614fda565b60208601516040870151606090970151919890975090945092505050565b600060208284031215614324578081fd5b81356001600160401b03811115614339578182fd5b61360784828501613e11565b60008060208385031215614357578182fd5b82356001600160401b038082111561436d578384fd5b81850186601f82011261437e578485fd5b803592508183111561438e578485fd5b86602080850283010111156143a1578485fd5b60200196919550909350505050565b6000602082840312156143c1578081fd5b81356001600160401b038111156143d6578182fd5b61360784828501613e88565b6000602082840312156143f3578081fd5b81518015158114614402578182fd5b9392505050565b6000806040838503121561441b578182fd5b8251801515811461442a578283fd5b6020939093015192949293505050565b60006020828403121561444b578081fd5b5051919050565b600060208284031215614463578081fd5b81516001600160401b03811115614478578182fd5b61360784828501613ee6565b600060208284031215614495578081fd5b813561440281614fda565b6000602082840312156144b1578081fd5b815161440281614fda565b6000806000606084860312156144d0578081fd5b83356144db81614fda565b95602085013595506040909401359392505050565b60008060008060008060008060006101208a8c03121561450e578687fd5b893561451981614fda565b985060208a013561452981614fda565b975060408a013561453981614fda565b965060608a013561454981614fda565b955060808a013561455981614fda565b945060a08a013561456981614fda565b935060c08a013561457981614fda565b925060e08a013561458981614fda565b91506101008a013561459a81614fda565b809150509295985092959850929598565b6000606082840312156145bc578081fd5b6145c66060614f65565b82516145d18161501c565b815260208301516145e18161501c565b602082015260408301516145f481615007565b60408201529392505050565b600060408284031215614611578081fd5b61461b6040614f65565b6146258484613f58565b81526146348460208501613f58565b60208201529392505050565b600080600060608486031215614654578081fd5b835161465f81614ff2565b602085015190935061467081614ff2565b604085015190925063ffffffff81168114614689578182fd5b809150509250925092565b600080604083850312156146a6578182fd5b82516146b181615007565b60208401519092506146c281615007565b809150509250929050565b600080604083850312156146df578182fd5b505080516020909101519092909150565b600060208284031215614701578081fd5b815160ff81168114614402578182fd5b6000815180845260208085019450808401835b83811015614742578151151587529582019590820190600101614724565b509495945050505050565b6000815180845260208085019450808401835b8381101561474257815180518852838101516001600160a01b0316848901526040908101519088015260609096019590820190600101614760565b15159052565b600081518084526147b9816020860160208601614faa565b601f01601f19169290920160200192915050565b6001600160a01b03169052565b6001600160401b03808251168352806020830151166020840152506001600160801b0360408201511660408301525050565b80518252602090810151910152565b80516001600160801b03908116835260209182015116910152565b6001600160801b03169052565b60ff169052565b6000825161485c818460208701614faa565b9190910192915050565b6001600160a01b0391909116815260200190565b6001600160a01b0392831681529116602082015260400190565b602080825282518282018190526000919060409081850190868401855b8281101561493a5781516148c68582516147cd565b80870151858801528581015186860152606080820151908601526080808201519086015260a0808201519086015260c08082015161490682880182614836565b505060e08082015161491a82880182614836565b5050610100908101519085015261012090930192908501906001016148b1565b5091979650505050505050565b602080825282518282018190526000919060409081850190868401855b8281101561493a57815180516001600160a01b0316855286810151878601528501518585015260609093019290850190600101614964565b602080825282518282018190526000919060409081850190868401855b8281101561493a57815180516001600160a01b0390811686528782015181168887015286820151168686015260609081015190850152608090930192908501906001016149b9565b602080825282518282018190526000919060409081850190868401855b8281101561493a57815180516001600160a01b0316855286810151878601528581015186860152606080820151908601526080908101519085015260a09093019290850190600101614a1e565b602080825282518282018190526000919060409081850190868401855b8281101561493a57614a9b84835161480c565b9284019290850190600101614a88565b60208082528251828201819052600091906040908185019080840286018301878501865b83811015614b4957603f19898403018552815160a0614aef8583516147cd565b8882015189860152878201518189870152614b0c828701826147a1565b6060925082840151915086810383880152614b2781836147a1565b6080948501519790940196909652505094870194925090860190600101614acf565b509098975050505050505050565b60208082528251828201819052600091906040908185019080840286018301878501865b83811015614b4957603f198984030185528151610240614b9c8583516147cd565b88820151614bac8a8701826147cd565b5087820151614bbd898701826147cd565b506060808301518282880152614bd5838801826147a1565b6080858101519089015260a0808601519089015260c0808601519094509092509050614c038388018261481b565b5060e0830151610100878101919091528301519150610120614c278188018461481b565b8301516101608781019190915261014084015161018080890191909152908401516101a080890191909152908401516101c08801528301519150614c6f6101e08701836147da565b968901969450505090860190600101614b7b565b602080825282518282018190526000919060409081850190868401855b8281101561493a5781518051855286810151878601528581015186860152606080820151908601526080808201519086015260a0808201519086015260c0808201519086015260e08082015190860152610100808201519086015261012090810151908501526101409093019290850190600101614ca0565b90815260200190565b60006020825261440260208301846147a1565b6020808252818101527f4f776e61626c653a2063616c6c6572206973206e6f7420746865206f776e6572604082015260600190565b60006060808301614d7b848761480c565b604084810183905285519182905260809182860190602080820288018501818a01885b84811015614e7b57607f198b840301865281516101408151855285820151614dc8878701826147cd565b5088820151898601528a820151614de18c87018261479b565b5089820151614df28b8701826147cd565b5060a080830151614e05828801826147cd565b505060c080830151614e19828801826147cd565b505060e0808301518282880152614e32838801826147a1565b91505061010091508183015186820383880152614e4f82826147a1565b9250505061012080830151614e6682880182614843565b50509685019693505090830190600101614d9e565b50909b9a5050505050505050505050565b60006020825282516020830152602083015160408301526040830151606083015260608301516080830152608083015160a083015260a083015160c083015260c08301516101a08060e0850152614ee76101c085018361474d565b60e08601516101008681019190915286015161012080870191909152860151610140808701919091528601516101608087019190915286015161018080870191909152860151858203601f1901838701529250614f448184614711565b9695505050505050565b9182526001600160a01b0316602082015260400190565b6040518181016001600160401b0381118282101715614f8357600080fd5b604052919050565b60006001600160401b03821115614fa0578081fd5b5060209081020190565b60005b83811015614fc5578181015183820152602001614fad565b83811115614fd4576000848401525b50505050565b6001600160a01b0381168114614fef57600080fd5b50565b6001600160701b0381168114614fef57600080fd5b6001600160801b0381168114614fef57600080fd5b6001600160401b0381168114614fef57600080fdfea2646970667358221220f7041dd7b8463eec534dcebd4d5a743b701191b33795f9d08455733edcfc0bcd64736f6c63430006060033",
    "sourcePath": "/Users/Uni/Documents/GitHub/soulswap/soulswap-periphery/contracts/SoulGuide.sol",
    "compiler": {
        "name": "solc",
        "version": "0.6.6+commit.6c089d02"
    },
    "functionHashes": {
        "WBTC()": "4dede3de",
        "WETH()": "ad5c4648",
        "coffinBox()": "bd047408",
        "findBalances(address,address[])": "ca0f937c",
        "findPools(address,uint256[])": "ac6091f8",
        "getBalances(address,address[])": "6a385ae9",
        "getETHRate(address)": "5ec54659",
        "getPairHash(address[])": "e3265c59",
        "getPairs(address,uint256,uint256)": "7e3e2596",
        "getPools(uint256[])": "2952dde8",
        "getTokenInfo(address[])": "4a69ac50",
        "getUIInfo(address,address[],address,address[])": "15243475",
        "initialize(address,address,address,address,address,address,address,address,address)": "f5e95acb",
        "maker()": "50655d8c",
        "owner()": "8da5cb5b",
        "pollPairs(address,address[])": "a959dd80",
        "pollPools(address,uint256[])": "3009f414",
        "pollUnderworldPairs(address,address[])": "e0352077",
        "setContracts(address,address,address,address,address,address,address,address,address)": "a8883060",
        "soul()": "815b7a8c",
        "soulFactory()": "f0c9e70a",
        "spell()": "ea762b79",
        "summoner()": "dacaa9d1",
        "uniV2Factory()": "3da04b87"
    },
    "gasEstimates": {
        "creation": {
            "codeDepositCost": "4116600",
            "executionCost": "infinite",
            "totalCost": "infinite"
        },
        "external": {
            "WBTC()": "1204",
            "WETH()": "1159",
            "coffinBox()": "1181",
            "findBalances(address,address[])": "infinite",
            "findPools(address,uint256[])": "infinite",
            "getBalances(address,address[])": "infinite",
            "getETHRate(address)": "infinite",
            "getPairHash(address[])": "infinite",
            "getPairs(address,uint256,uint256)": "infinite",
            "getPools(uint256[])": "infinite",
            "getTokenInfo(address[])": "infinite",
            "getUIInfo(address,address[],address,address[])": "infinite",
            "initialize(address,address,address,address,address,address,address,address,address)": "infinite",
            "maker()": "1093",
            "owner()": "infinite",
            "pollPairs(address,address[])": "infinite",
            "pollPools(address,uint256[])": "infinite",
            "pollUnderworldPairs(address,address[])": "infinite",
            "setContracts(address,address,address,address,address,address,address,address,address)": "infinite",
            "soul()": "1181",
            "soulFactory()": "1180",
            "spell()": "1158",
            "summoner()": "1092",
            "uniV2Factory()": "1160"
        }
    }
}